8=FIX.4.4|9=100|35=A|34=1|49=TRADER_3|52=20260417-09:48:42.568|56=FIX_GWY_1|98=0|108=30|141=Y|553=TRADER_3|554=TEST|10=212|8=FIX.4.4|9=60|35=5|34=2|49=TRADER_3|52=20260417-09:48:42.800|56=FIX_GWY_1|10=002|